:100000000C945D000C9485000C9485000C94850084
:100010000C9485000C9485000C9485000C9485004C
:100020000C9485000C9485000C9485000C9485003C
:100030000C9485000C9485000C9485000C9485002C
:100040000C9437020C9485000C9485000C94850068
:100050000C9485000C9485000C9485000C9485000C
:100060000C9485000C94850000000008000201003B
:100070000003040700000000000000000000000072
:10008000250028002B0000000000240027002A0083
:10009000040404040404040402020202020203032E
:1000A0000303030301020408102040800102040836
:1000B0001020010204081020A70311241FBECFEF57
:1000C000D8E0DEBFCDBF11E0A0E0B1E0E0E3F8E0B2
:1000D00002C005900D92A832B107D9F721E0A8E23D
:1000E000B1E001C01D92A938B207E1F710E0CDE5FB
:1000F000D0E004C02197FE010E941004CC35D10746
:10010000C9F70E94A0020C9416040C94000090E021
:10011000FC01E859FF4F2491FC01EC55FF4F34914D
:10012000FC01E057FF4FE491EE23C9F0222339F0A0
:10013000233001F1A8F4213019F1223029F1F0E047
:10014000EE0FFF1FE458FF4FA591B4918FB7F894BD
:10015000EC91611126C030953E233C938FBF0895EA
:100160002730A9F02830C9F0243049F78091800069
:100170008F7D03C0809180008F7780938000DFCFD8
:1001800084B58F7784BDDBCF84B58F7DFBCF809125
:10019000B0008F778093B000D2CF8091B0008F7D78
:1001A000F9CF3E2BDACF3FB7F89480912D01909193
:1001B0002E01A0912F01B091300126B5A89B05C05A
:1001C0002F3F19F00196A11DB11D3FBFBA2FA92FD6
:1001D000982F8827BC01CD01620F711D811D911DD3
:1001E00042E0660F771F881F991F4A95D1F708953F
:1001F0008F929F92AF92BF92CF92DF92EF92FF9237
:100200006B017C010E94D3004B015C01C114D1043D
:10021000E104F104B9F00E94D300681979098A0950
:100220009B09683E73408105910580F321E0C21A65
:10023000D108E108F10888EE880E83E0981EA11C21
:10024000B11CE4CFFF90EF90DF90CF90BF90AF90C4
:100250009F908F900895CF92DF92EF92FF920F932D
:100260001F93CF93DF9300D0CDB7DEB769834A8366
:10027000880F991F0091870110918801000F111FAD
:10028000E1E3F1E09F01215331402017310714F4DD
:100290001192F8CF2981FC01EF5CFE4F21838A8106
:1002A000808360E0809185010E948700101611060E
:1002B00004F501501109F801EF5CFE4FE080D09089
:1002C0008301C090810188E0F82E6E2D661F66279D
:1002D000661F8C2D0E948700EE0C61E08D2D0E9420
:1002E000870060E08D2D0E948700FA94F110EDCF19
:1002F000DDCF61E0809185010F900F90DF91CF916C
:100300001F910F91FF90EF90DF90CF900C9487009A
:10031000EF92FF921F93CF93DF932091870130914B
:10032000880182179307B4F4EC0123E0880F991F2A
:100330002A95E1F79C012F5B3E4F790111E0F7010F
:1003400011927F0140E0612FCE010E942B011F5FBF
:100350001930A9F7DF91CF911F91FF90EF90089589
:100360007F928F929F92AF92BF92CF92DF92EF9245
:10037000FF920F931F93CF93DF938C015B014C018E
:1003800083E0880C991C8A95E1F7C0E8D0E002C0B0
:10039000D595C7956A95E2F7DC2FC09528E030E047
:1003A000E42EF12C99E0792E8091870190918801BB
:1003B000A901415051096A0108171907DCF458E0F6
:1003C000A516B104B9F0F401E21BF30BEF5CFE4F8C
:1003D000808DA7010C2C02C0559547950A94E2F731
:1003E00040FF19C08D2B808F672D621B408DC80187
:1003F0000E942B019601CD28B9F6DF91CF911F9174
:100400000F91FF90EF90DF90CF90BF90AF909F90B3
:100410008F907F9008958C23E6CFEF92FF920F93F9
:100420001F93CF93DF938B017C01D0E0C0E08091DC
:1004300087019091880102973CF0F7014781BE0146
:1004400081E090E00E94B0012196F1E0EF1AF108FE
:10045000C830D10561F7B801110F880B990BDF91F6
:10046000CF911F910F91FF90EF900C94F8001F9285
:100470000F920FB60F9211242F933F938F939F9358
:10048000AF93BF938091290190912A01A0912B01F4
:10049000B0912C013091280123E0230F2D3758F51E
:1004A0000196A11DB11D20932801809329019093ED
:1004B0002A01A0932B01B0932C0180912D019091E2
:1004C0002E01A0912F01B09130010196A11DB11D07
:1004D00080932D0190932E01A0932F01B0933001B2
:1004E000BF91AF919F918F913F912F910F900FBE30
:1004F0000F901F90189526E8230F0296A11DB11D9D
:10050000D2CF90E0FC01EC55FF4F249180579F4FD4
:10051000FC018491882399F090E0880F991FFC01D9
:10052000EA57FF4FA591B491FC01E458FF4F859124
:1005300094918FB7F894EC91E22BEC938FBF0895D0
:10054000789484B5826084BD84B5816084BD85B5AE
:10055000826085BD85B5816085BD80916E008160BA
:1005600080936E0010928100809181008260809360
:100570008100809181008160809381008091800062
:100580008160809380008091B10084608093B1008D
:100590008091B00081608093B00080917A00846087
:1005A00080937A0080917A00826080937A008091B3
:1005B0007A00816080937A0080917A0080688093CD
:1005C0007A001092C10080918701909188011816DD
:1005D000190634F441E06CE090E080E00E942B01C9
:1005E00080918701909188011816190634F445E02E
:1005F0006AE090E080E00E942B0190E080E00E94A1
:1006000088018091870190918801029734F041E040
:100610006CE081E090E00E942B0180918701909135
:100620008801029734F045E06AE081E090E00E94A2
:100630002B0181E090E00E948801809187019091D8
:100640008801039734F041E06CE082E090E00E9482
:100650002B018091870190918801039734F045E048
:100660006AE082E090E00E942B0182E090E00E942C
:10067000880180E0E82E80E0F82E70E060E080E203
:1006800091E00E940D0208E111E0D0E0C0E080910D
:1006900087019091880103973CF0F8014781BE01E2
:1006A00082E090E00E94B001219601501109C8300B
:1006B000D10569F760E070E0CB010E94F80000E22C
:1006C00011E0D0E0C0E08091870190918801181678
:1006D00019063CF4F8014781BE0190E080E00E94D9
:1006E000B001219601501109C830D10561F760E0D1
:1006F00070E0CB010E94F8006CED75E080E291E0C3
:100700000E940D0262E370E080E191E00E940D0220
:1007100062E370E088E091E00E940D0262E370E025
:1007200080E091E00E940D0262E370E088E091E0D9
:100730000E940D0262E370E080E191E00E940D02F0
:10074000E114F10409F499CF0E94000096CFCF93F1
:10075000DF93C7E0D0E0D0938201C093810185E0B0
:1007600090E0909384018093830186E090E09093E1
:1007700086018093850183E090E0909388018093C7
:10078000870187E00E948102809183010E9481029B
:10079000809185010E94810261E0809185010E9423
:1007A0008700D0938201C0938101E1E4F1E081E808
:1007B00091E011928E179F07E1F7D0E0C0E08091A1
:1007C000870190918801C817D9073CF540E06FE098
:1007D000CE010E942B018091870190918801C8175A
:1007E000D9072CF447E06BE0CE010E942B0140E0DA
:1007F00069E0CE010E942B01CE010E948801809108
:10080000870190918801C817D9072CF440E06CE06B
:10081000CE010E942B012196D2CFDF91CF91089576
:10082000EE0FFF1F0590F491E02D0994F894FFCF8F
:1008300018181818181818181818243C3C241818D8
:100840001824425A5A42241840201008040204086E
:080850003C4281999981423C70
:00000001FF
