:020000040000FA
:100000000C945D000C9485000C9485000C94850084
:100010000C9485000C9485000C9485000C9485004C
:100020000C9485000C9485000C9485000C9485003C
:100030000C9485000C9485000C9485000C9485002C
:100040000C9442020C9485000C9485000C9485005D
:100050000C9485000C9485000C9485000C9485000C
:100060000C9485000C94850000000008000201003B
:100070000003040700000000000000000000000072
:10008000250028002B0000000000240027002A0083
:10009000040404040404040402020202020203032E
:1000A0000303030301020408102040800102040836
:1000B0001020010204081020AE0311241FBECFEF50
:1000C000D8E0DEBFCDBF11E0A0E0B1E0EEE3F8E0A4
:1000D00002C005900D92A832B107D9F721E0A8E23D
:1000E000B1E001C01D92A938B207E1F710E0CDE5FB
:1000F000D0E004C02197FE010E941704CC35D1073F
:10010000C9F70E94AB020C941D040C94000090E00F
:10011000FC01E859FF4F2491FC01EC55FF4F34914D
:10012000FC01E057FF4FE491EE23C9F0222339F0A0
:10013000233001F1A8F4213019F1223029F1F0E047
:10014000EE0FFF1FE458FF4FA591B4918FB7F894BD
:10015000EC91611126C030953E233C938FBF0895EA
:100160002730A9F02830C9F0243049F78091800069
:100170008F7D03C0809180008F7780938000DFCFD8
:1001800084B58F7784BDDBCF84B58F7DFBCF809125
:10019000B0008F778093B000D2CF8091B0008F7D78
:1001A000F9CF3E2BDACF3FB7F89480912D01909193
:1001B0002E01A0912F01B091300126B5A89B05C05A
:1001C0002F3F19F00196A11DB11D3FBFBA2FA92FD6
:1001D000982F8827BC01CD01620F711D811D911DD3
:1001E00042E0660F771F881F991F4A95D1F708953F
:1001F0008F929F92AF92BF92CF92DF92EF92FF9237
:100200006B017C010E94D3004B015C01C114D1043D
:10021000E104F104B9F00E94D300681979098A0950
:100220009B09683E73408105910580F321E0C21A65
:10023000D108E108F10888EE880E83E0981EA11C21
:10024000B11CE4CFFF90EF90DF90CF90BF90AF90C4
:100250009F908F900895CF92DF92EF92FF920F932D
:100260001F93CF93DF9300D0CDB7DEB769834A8366
:10027000880F991F0091870110918801000F111FAD
:10028000E1E3F1E09F01215331402017310714F4DD
:100290001192F8CF2981FC01EF5CFE4F21838A8106
:1002A000808360E0809185010E948700101611060E
:1002B00004F501501109F801EF5CFE4FE080D09089
:1002C0008301C090810188E0F82E6E2D661F66279D
:1002D000661F8C2D0E948700EE0C61E08D2D0E9420
:1002E000870060E08D2D0E948700FA94F110EDCF19
:1002F000DDCF61E0809185010F900F90DF91CF916C
:100300001F910F91FF90EF90DF90CF900C9487009A
:10031000EF92FF921F93CF93DF932091870130914B
:10032000880182179307B4F4EC0123E0880F991F2A
:100330002A95E1F79C012F5B3E4F790111E0F7010F
:1003400011927F0140E0612FCE010E942B011F5FBF
:100350001930A9F7DF91CF911F91FF90EF90089589
:10036000E0E8F0E0DF0102C0B595A7954A95E2F715
:10037000AD01FC0133E0EE0FFF1F3A95E1F7E60F08
:10038000F71FEF5CFE4F3089222331F0432B408B67
:100390006F5F40890C942B0140954323F8CFAF92B7
:1003A000BF92CF92DF92EF92FF920F931F93CF9362
:1003B000DF937C016B01D0E0C0E0042F10E087E008
:1003C000A82EB12C8091870190918801E816F9063A
:1003D0009CF488E0C816D10479F0C5018C1B9D0BF4
:1003E000980102C0359527958A95E2F72170A601FC
:1003F000BE01C7010E94B0012196C830D10511F796
:10040000DF91CF911F910F91FF90EF90DF90CF90F0
:10041000BF90AF900895EF92FF920F931F93CF93E9
:10042000DF937B018C01D0E0C0E080918701909147
:100430008801181619063CF4F8014781BE0190E0C6
:1004400080E00E94CF0180918701909188010297FE
:100450003CF0F8014781BE0181E090E00E94CF01AD
:10046000219601501109C830D105F9F6B701FF0CEA
:10047000880B990BDF91CF911F910F91FF90EF9017
:100480000C94F8001F920F920FB60F9211242F9325
:100490003F938F939F93AF93BF9380912901909146
:1004A0002A01A0912B01B0912C013091280123E069
:1004B000230F2D3758F50196A11DB11D209328015A
:1004C0008093290190932A01A0932B01B0932C01D2
:1004D00080912D0190912E01A0912F01B0913001BA
:1004E0000196A11DB11D80932D0190932E01A09323
:1004F0002F01B0933001BF91AF919F918F913F91A8
:100500002F910F900FBE0F901F90189526E8230F84
:100510000296A11DB11DD2CF90E0FC01EC55FF4F1A
:10052000249180579F4FFC018491882399F090E09B
:10053000880F991FFC01EA57FF4FA591B491FC0168
:10054000E458FF4F859194918FB7F894EC91E22B8A
:10055000EC938FBF0895789484B5826084BD84B590
:10056000816084BD85B5826085BD85B5816085BDAE
:1005700080916E00816080936E0010928100809166
:1005800081008260809381008091810081608093EE
:100590008100809180008160809380008091B10013
:1005A00084608093B1008091B00081608093B0003E
:1005B00080917A00846080937A0080917A008260D2
:1005C00080937A0080917A00816080937A00809194
:1005D0007A00806880937A001092C1008091870130
:1005E000909188011816190634F441E06CE090E00F
:1005F00080E00E942B01809187019091880118165C
:10060000190634F445E06AE090E080E00E942B0196
:1006100090E080E00E94880180918701909188019C
:10062000029734F041E06CE081E090E00E942B0101
:100630008091870190918801029734F045E06AE04B
:1006400081E090E00E942B0181E090E00E9488010F
:100650008091870190918801039734F041E06CE02C
:1006600082E090E00E942B018091870190918801A7
:10067000039734F045E06AE082E090E00E942B01AD
:1006800082E090E00E94880197E0A92EB12C20E042
:10069000822E20E0922E80E2E82E81E0F82E10E0FB
:1006A00000E080918701909188010397FCF0F701A9
:1006B000C780D0E0C0E0D12C809187019091880163
:1006C000039784F0C5018C1B9D0B960102C03595E4
:1006D00027958A95E2F72170A801BE0182E090E09B
:1006E0000E94B0012196C830D10531F70F5F1F4F2E
:1006F000F1E0EF1AF1080830110599F660E070E0BA
:10070000CB010E94F80060ED77E088E191E00E9463
:100710000B0262E370E080E191E00E940B0262E371
:1007200070E088E091E00E940B0262E370E080E0FC
:1007300091E00E940B0262E370E088E091E00E9489
:100740000B0262E370E080E191E00E940B028114F1
:10075000910409F4A0CF0E9400009DCFCF93DF93B6
:10076000C7E0D0E0D0938201C093810185E090E0A2
:10077000909384018093830186E090E090938601BA
:100780008093850183E090E09093880180938701B6
:1007900087E00E948C02809183010E948C028091EC
:1007A00085010E948C0261E0809185010E94870092
:1007B000D0938201C0938101E1E4F1E081E891E00E
:1007C00011928E179F07E1F7D0E0C0E0809187017A
:1007D00090918801C817D9073CF540E06FE0CE0141
:1007E0000E942B018091870190918801C817D90739
:1007F0002CF447E06BE0CE010E942B0140E069E061
:10080000CE010E942B01CE010E94880180918701B8
:1008100090918801C817D9072CF440E06CE0CE0114
:100820000E942B012196D2CFDF91CF910895EE0F38
:10083000FF1F0590F491E02D0994F894FFCF18184C
:100840001818181818181818243C3C2418181824BC
:10085000425A5A4224183C4281999981423C3C4276
:06086000A58585A5423CC0
:107E0000112484B714BE81FFF0D085E080938100F7
:107E100082E08093C00088E18093C10086E0809377
:107E2000C20080E18093C4008EE0C9D0259A86E02C
:107E300020E33CEF91E0309385002093840096BBD3
:107E4000B09BFECF1D9AA8958150A9F7CC24DD24C4
:107E500088248394B5E0AB2EA1E19A2EF3E0BF2EE7
:107E6000A2D0813461F49FD0082FAFD0023811F036
:107E7000013811F484E001C083E08DD089C08234E0
:107E800011F484E103C0853419F485E0A6D080C0E4
:107E9000853579F488D0E82EFF2485D0082F10E0AE
:107EA000102F00270E291F29000F111F8ED06801E7
:107EB0006FC0863521F484E090D080E0DECF843638
:107EC00009F040C070D06FD0082F6DD080E0C81688
:107ED00080E7D80618F4F601B7BEE895C0E0D1E017
:107EE00062D089930C17E1F7F0E0CF16F0E7DF06D8
:107EF00018F0F601B7BEE89568D007B600FCFDCFD4
:107F0000A601A0E0B1E02C9130E011968C91119780
:107F100090E0982F8827822B932B1296FA010C0160
:107F200087BEE89511244E5F5F4FF1E0A038BF0790
:107F300051F7F601A7BEE89507B600FCFDCF97BE46
:107F4000E89526C08437B1F42ED02DD0F82E2BD052
:107F50003CD0F601EF2C8F010F5F1F4F84911BD097
:107F6000EA94F801C1F70894C11CD11CFA94CF0C13
:107F7000D11C0EC0853739F428D08EE10CD085E9AC
:107F80000AD08FE07ACF813511F488E018D01DD067
:107F900080E101D065CF982F8091C00085FFFCCF94
:107FA0009093C60008958091C00087FFFCCF809118
:107FB000C00084FD01C0A8958091C6000895E0E648
:107FC000F0E098E1908380830895EDDF803219F02E
:107FD00088E0F5DFFFCF84E1DECF1F93182FE3DFCA
:107FE0001150E9F7F2DF1F91089580E0E8DFEE27F6
:047FF000FF270994CA
:027FFE00040479
:00000001FF
